:107F160098EF3FF00F0EC16E090E636F8A688C6A88
:107F2600896A9368956A926A12008DEC3FF0000E9A
:107F3600635D1CE0010E635D1FE0020E635D22E0DF
:107F4600030E635D25E0040E635D28E0050E635DA8
:107F56002BE0060E635D2EE0070E635D31E0080E32
:107F6600635D34E0090E635D37E03CD03F0E836EFF
:107F7600F9EC3FF09AEF3FF0060E836EF9EC3FF016
:107F86009AEF3FF05B0E836EF9EC3FF09AEF3FF00D
:107F96004F0E836EF9EC3FF09AEF3FF0660E836E5C
:107FA600F9EC3FF09AEF3FF06D0E836EF9EC3FF07F
:107FB6009AEF3FF07D0E836EF9EC3FF09AEF3FF0BB
:107FC600070E836EF9EC3FF09AEF3FF07F0E836E5B
:107FD600F9EC3FF09AEF3FF06F0E836EF9EC3FF04D
:107FE6009AEF3FF0370E836E9AEF3FF00A0E616FFD
:0A7FF600612FFBEF3FF0630712005C
:020000040030CA
:04000000550E1E007B
:020005008080F9
:060008000FC00FE00F40E5
:00000001FF
