:107E54003AEF3FF00F0EC16E8A688C6A896A9368A4
:107E6400956A926A816A000E686F090E696F120042
:107E74002CEC3FF0000E695D1CE0010E695D21E011
:107E8400020E695D25E0030E695D29E0040E695D5B
:107E94002DE0050E695D31E0060E695D35E0070EE3
:107EA400695D39E0080E695D3DE0090E695D41E0F8
:107EB40047D03F0E836EA6EC3FF0090E696F3CEF8E
:107EC4003FF0060E836EA6EC3FF069073CEF3FF0EF
:107ED4005B0E836EA6EC3FF069073CEF3FF04F0E5C
:107EE400836EA6EC3FF069073CEF3FF0660E836EAD
:107EF400A6EC3FF069073CEF3FF06D0E836EA6ECF5
:107F04003FF069073CEF3FF07D0E836EA6EC3FF037
:107F140069073CEF3FF0070E836EA6EC3FF069075C
:107F24003CEF3FF07F0E836EA6EC3FF069073CEF19
:107F34003FF06F0E836EA6EC3FF069073CEF3FF015
:107F4400370E836EE5EC3FF081B0EEEC3FF081B28A
:107F5400F7EC3FF06851806E000E685D0DE0010E95
:107F6400685D16E0020E685D1CE0030E685D22E0A9
:107F7400040E685D28E01200FF0E616F190E626F37
:107F84000000612FC3EF3FF0622FC2EF3FF01200F9
:107F9400050E636F0000BEEC3FF0632FCDEF3FF0A2
:107FA40012000A0E646F0000BEEC3FF0642FD6EF9F
:107FB4003FF01200050E656F0000D3EC3FF0652F13
:107FC400DFEF3FF012000A0E666F0000D3EC3FF0C3
:107FD400662FE8EF3FF01200BEEC3FF081B0EEEF09
:107FE4003FF0040E6863682B1200BEEC3FF081B2D0
:0C7FF400F7EF3FF0000E68636807120012
:020000040030CA
:0400000052081E0084
:020005008080F9
:060008000FC00FE00F40E5
:00000001FF
