:107EF60088EF3FF00F0EC16E8A688C6A896A9368B4
:107F0600956A926A090E676F12007DEC3FF0000ECB
:107F1600675D1CE0010E675D21E0020E675D25E0EE
:107F2600030E675D29E0040E675D2DE0050E675DB3
:107F360031E0060E675D35E0070E675D39E0080E35
:107F4600675D3DE0090E675D41E047D03F0E836EF9
:107F5600F4EC3FF0090E676F8AEF3FF0060E836E72
:107F6600F4EC3FF067078AEF3FF05B0E836EF4ECAC
:107F76003FF067078AEF3FF04F0E836EF4EC3FF059
:107F860067078AEF3FF0660E836EF4EC3FF06707F3
:107F96008AEF3FF06D0E836EF4EC3FF067078AEFD1
:107FA6003FF07D0E836EF4EC3FF067078AEF3FF0FB
:107FB600070E836EF4EC3FF067078AEF3FF07F0E03
:107FC600836EF4EC3FF067078AEF3FF06F0E836E27
:107FD600F4EC3FF067078AEF3FF0370E836EF4EC60
:107FE6003FF0FF0E616F190E626F0000612FF9EF0F
:0A7FF6003FF0622FF8EF3FF0120099
:020000040030CA
:0400000052081E0084
:020005008080F9
:060008000FC00FE00F40E5
:00000001FF
