:107DF4000CEF3FF00F0EC16E8A688C6A896A936833
:107E0400956A926A816A000E6A6F090E6B6F000EA2
:107E1400696F1200FCEC3EF0000E6B5D1CE0010E7D
:107E24006B5D21E0020E6B5D25E0030E6B5D29E0C6
:107E3400040E6B5D2DE0050E6B5D31E0060E6B5D8F
:107E440035E0070E6B5D39E0080E6B5D3DE0090E11
:107E54006B5D41E047D03F0E836E78EC3FF0090E36
:107E64006B6F0EEF3FF0060E836E78EC3FF06B07FE
:107E74000EEF3FF05B0E836E78EC3FF06B070EEF76
:107E84003FF04F0E836E78EC3FF06B070EEF3FF040
:107E9400660E836E78EC3FF06B070EEF3FF06D0ECD
:107EA400836E78EC3FF06B070EEF3FF07D0E836E30
:107EB40078EC3FF06B070EEF3FF0070E836E78EC23
:107EC4003FF06B070EEF3FF07F0E836E78EC3FF0D0
:107ED4006B070EEF3FF06F0E836E78EC3FF06B078D
:107EE4000EEF3FF0370E836EBCEC3FF081B0C5EC73
:107EF4003FF081B2CEEC3FF0D7EC3FF0000E6A5D6C
:107F04000DE0010E6A5D1BE0020E6A5D21E0030EC6
:107F14006A5D27E0040E6A5D2DE01200FF0E616FBA
:107F24008C0E626F030E686F0000612F97EF3FF0B5
:107F3400622F96EF3FF0682F96EF3FF01200050E88
:107F4400636F000090EC3FF0632FA4EF3FF012004A
:107F54000A0E646F000090EC3FF0642FADEF3FF029
:107F64001200050E656F0000AAEC3FF0652FB6EF16
:107F74003FF012000A0E666F0000AAEC3FF0662F75
:107F8400BFEF3FF0120090EC3FF081B0C5EF3FF03F
:107F9400040E6A636A2B120090EC3FF081B2CEEFBC
:107FA4003FF0000E6A636A071200010E6963FBEF7B
:107FB4003FF0000E696F000E6A5D0CE0010E6A5D11
:107FC4000CE0020E6A5D0CE0030E6A5D0CE0040E28
:107FD4006A5D0CE0010E806E1200020E806E1200CB
:107FE400040E806E1200080E806E1200100E806E59
:0C7FF4001200000E806E010E696F12007A
:020000040030CA
:04000000550E1E007B
:020005008080F9
:060008000FC00FE00F40E5
:00000001FF
